{
  "_format": "hh-sol-artifact-1",
  "contractName": "ConsentCred",
  "sourceName": "contracts/ConsentsCred.sol",
  "abi": [
    {
      "inputs": [
        {
          "internalType": "string",
          "name": "userid",
          "type": "string"
        },
        {
          "internalType": "string",
          "name": "datatype",
          "type": "string"
        },
        {
          "internalType": "string",
          "name": "recipient",
          "type": "string"
        }
      ],
      "name": "check_consent",
      "outputs": [
        {
          "internalType": "bool",
          "name": "",
          "type": "bool"
        }
      ],
      "stateMutability": "view",
      "type": "function"
    },
    {
      "inputs": [],
      "name": "consentCount",
      "outputs": [
        {
          "internalType": "uint256",
          "name": "",
          "type": "uint256"
        }
      ],
      "stateMutability": "view",
      "type": "function"
    },
    {
      "inputs": [
        {
          "internalType": "string",
          "name": "user_id",
          "type": "string"
        },
        {
          "internalType": "string",
          "name": "datatype",
          "type": "string"
        },
        {
          "internalType": "string",
          "name": "recipient_id",
          "type": "string"
        }
      ],
      "name": "give_consent",
      "outputs": [],
      "stateMutability": "nonpayable",
      "type": "function"
    },
    {
      "inputs": [
        {
          "internalType": "string",
          "name": "userid",
          "type": "string"
        },
        {
          "internalType": "string",
          "name": "datatype",
          "type": "string"
        },
        {
          "internalType": "string",
          "name": "recipient",
          "type": "string"
        }
      ],
      "name": "revoke_consent",
      "outputs": [],
      "stateMutability": "nonpayable",
      "type": "function"
    },
    {
      "inputs": [
        {
          "internalType": "string",
          "name": "userid",
          "type": "string"
        }
      ],
      "name": "setUserID",
      "outputs": [],
      "stateMutability": "nonpayable",
      "type": "function"
    },
    {
      "inputs": [
        {
          "internalType": "address",
          "name": "",
          "type": "address"
        }
      ],
      "name": "userIds",
      "outputs": [
        {
          "internalType": "string",
          "name": "",
          "type": "string"
        }
      ],
      "stateMutability": "view",
      "type": "function"
    }
  ],
  "bytecode": "0x608060405234801561001057600080fd5b506118b1806100206000396000f3fe608060405234801561001057600080fd5b50600436106100625760003560e01c80631edb91971461006757806327b42405146100855780634081db51146100a157806394af1d61146100d1578063c3791740146100ed578063fbdbb8451461011d575b600080fd5b61006f610139565b60405161007c9190610d38565b60405180910390f35b61009f600480360381019061009a9190610dc2565b61013f565b005b6100bb60048036038101906100b69190610ed4565b61055f565b6040516100c89190610f91565b60405180910390f35b6100eb60048036038101906100e69190610dc2565b6105ff565b005b61010760048036038101906101029190610dc2565b610806565b6040516101149190610fce565b60405180910390f35b61013760048036038101906101329190610fe9565b61084a565b005b60005481565b6000610256600360003373ffffffffffffffffffffffffffffffffffffffff1673ffffffffffffffffffffffffffffffffffffffff168152602001908152602001600020805461018e90611065565b80601f01602080910402602001604051908101604052809291908181526020018280546101ba90611065565b80156102075780601f106101dc57610100808354040283529160200191610207565b820191906000526020600020905b8154815290600101906020018083116101ea57829003601f168201915b505050505088888080601f016020809104026020016040519081016040528093929190818152602001838380828437600081840152601f19601f820116905080830192505050505050506109ae565b905080610298576040517f08c379a000000000000000000000000000000000000000000000000000000000815260040161028f906110e2565b60405180910390fd5b600a8787905011156102df576040517f08c379a00000000000000000000000000000000000000000000000000000000081526004016102d690611174565b60405180910390fd5b600a838390501115610326576040517f08c379a000000000000000000000000000000000000000000000000000000000815260040161031d90611174565b60405180910390fd5b6000610336888888888888610a17565b90506000810361052657600080815480929190610352906111c3565b919050555060006040518060a00160405280600054815260200188888080601f016020809104026020016040519081016040528093929190818152602001838380828437600081840152601f19601f8201169050808301925050505050505081526020018a8a8080601f016020809104026020016040519081016040528093929190818152602001838380828437600081840152601f19601f82011690508083019250505050505050815260200186868080601f016020809104026020016040519081016040528093929190818152602001838380828437600081840152601f19601f82011690508083019250505050505050815260200160011515815250905080600160008054815260200190815260200160002060008201518160000155602082015181600101908161048791906113e6565b50604082015181600201908161049d91906113e6565b5060608201518160030190816104b391906113e6565b5060808201518160040160006101000a81548160ff021916908315150217905550905050600289896040516104e99291906114f7565b9081526020016040518091039020600054908060018154018082558091505060019003906000526020600020016000909190919091505550610555565b600180600083815260200190815260200160002060040160006101000a81548160ff0219169083151502179055505b5050505050505050565b6003602052806000526040600020600091509050805461057e90611065565b80601f01602080910402602001604051908101604052809291908181526020018280546105aa90611065565b80156105f75780601f106105cc576101008083540402835291602001916105f7565b820191906000526020600020905b8154815290600101906020018083116105da57829003601f168201915b505050505081565b6000610716600360003373ffffffffffffffffffffffffffffffffffffffff1673ffffffffffffffffffffffffffffffffffffffff168152602001908152602001600020805461064e90611065565b80601f016020809104026020016040519081016040528092919081815260200182805461067a90611065565b80156106c75780601f1061069c576101008083540402835291602001916106c7565b820191906000526020600020905b8154815290600101906020018083116106aa57829003601f168201915b505050505088888080601f016020809104026020016040519081016040528093929190818152602001838380828437600081840152601f19601f820116905080830192505050505050506109ae565b905080610758576040517f08c379a000000000000000000000000000000000000000000000000000000000815260040161074f9061155c565b60405180910390fd5b6000610768888888888888610a17565b90506001600082815260200190815260200160002060040160009054906101000a900460ff166107cd576040517f08c379a00000000000000000000000000000000000000000000000000000000081526004016107c4906115c8565b60405180910390fd5b60006001600083815260200190815260200160002060040160006101000a81548160ff0219169083151502179055505050505050505050565b600080610817888888888888610a17565b90506001600082815260200190815260200160002060040160009054906101000a900460ff169150509695505050505050565b6040516020016108599061160e565b60405160208183030381529060405280519060200120600360003373ffffffffffffffffffffffffffffffffffffffff1673ffffffffffffffffffffffffffffffffffffffff1681526020019081526020016000206040516020016108be91906116a6565b6040516020818303038152906040528051906020012014610914576040517f08c379a000000000000000000000000000000000000000000000000000000000815260040161090b90611709565b60405180910390fd5b606482829050111561095b576040517f08c379a000000000000000000000000000000000000000000000000000000000815260040161095290611174565b60405180910390fd5b8181600360003373ffffffffffffffffffffffffffffffffffffffff1673ffffffffffffffffffffffffffffffffffffffff16815260200190815260200160002091826109a9929190611734565b505050565b6000816040516020016109c19190611835565b60405160208183030381529060405280519060200120836040516020016109e89190611835565b6040516020818303038152906040528051906020012003610a0c5760019050610a11565b600090505b92915050565b600080600060028989604051610a2e9291906114f7565b9081526020016040518091039020805480602002602001604051908101604052809291908181526020018280548015610a8657602002820191906000526020600020905b815481526020019060010190808311610a72575b5050505050905060005b8151811015610d0f576000610ba160016000858581518110610ab557610ab461184c565b5b602002602001015181526020019081526020016000206003018054610ad990611065565b80601f0160208091040260200160405190810160405280929190818152602001828054610b0590611065565b8015610b525780601f10610b2757610100808354040283529160200191610b52565b820191906000526020600020905b815481529060010190602001808311610b3557829003601f168201915b505050505088888080601f016020809104026020016040519081016040528093929190818152602001838380828437600081840152601f19601f820116905080830192505050505050506109ae565b90506000610cab60016000868681518110610bbf57610bbe61184c565b5b602002602001015181526020019081526020016000206001018054610be390611065565b80601f0160208091040260200160405190810160405280929190818152602001828054610c0f90611065565b8015610c5c5780601f10610c3157610100808354040283529160200191610c5c565b820191906000526020600020905b815481529060010190602001808311610c3f57829003601f168201915b50505050508b8b8080601f016020809104026020016040519081016040528093929190818152602001838380828437600081840152601f19601f820116905080830192505050505050506109ae565b9050818015610cb75750805b15610cf65760016000858581518110610cd357610cd261184c565b5b602002602001015181526020019081526020016000206000015494505050610d0f565b6000945050508080610d07906111c3565b915050610a90565b5081925050509695505050505050565b6000819050919050565b610d3281610d1f565b82525050565b6000602082019050610d4d6000830184610d29565b92915050565b600080fd5b600080fd5b600080fd5b600080fd5b600080fd5b60008083601f840112610d8257610d81610d5d565b5b8235905067ffffffffffffffff811115610d9f57610d9e610d62565b5b602083019150836001820283011115610dbb57610dba610d67565b5b9250929050565b60008060008060008060608789031215610ddf57610dde610d53565b5b600087013567ffffffffffffffff811115610dfd57610dfc610d58565b5b610e0989828a01610d6c565b9650965050602087013567ffffffffffffffff811115610e2c57610e2b610d58565b5b610e3889828a01610d6c565b9450945050604087013567ffffffffffffffff811115610e5b57610e5a610d58565b5b610e6789828a01610d6c565b92509250509295509295509295565b600073ffffffffffffffffffffffffffffffffffffffff82169050919050565b6000610ea182610e76565b9050919050565b610eb181610e96565b8114610ebc57600080fd5b50565b600081359050610ece81610ea8565b92915050565b600060208284031215610eea57610ee9610d53565b5b6000610ef884828501610ebf565b91505092915050565b600081519050919050565b600082825260208201905092915050565b60005b83811015610f3b578082015181840152602081019050610f20565b60008484015250505050565b6000601f19601f8301169050919050565b6000610f6382610f01565b610f6d8185610f0c565b9350610f7d818560208601610f1d565b610f8681610f47565b840191505092915050565b60006020820190508181036000830152610fab8184610f58565b905092915050565b60008115159050919050565b610fc881610fb3565b82525050565b6000602082019050610fe36000830184610fbf565b92915050565b6000806020838503121561100057610fff610d53565b5b600083013567ffffffffffffffff81111561101e5761101d610d58565b5b61102a85828601610d6c565b92509250509250929050565b7f4e487b7100000000000000000000000000000000000000000000000000000000600052602260045260246000fd5b6000600282049050600182168061107d57607f821691505b6020821081036110905761108f611036565b5b50919050565b7f6f6e6c7920686f6c6465722063616e206769766520636f6e73656e7400000000600082015250565b60006110cc601c83610f0c565b91506110d782611096565b602082019050919050565b600060208201905081810360008301526110fb816110bf565b9050919050565b7f4c656e6774682073686f756c64206e6f7420657863656564203130206368617260008201527f6163746572730000000000000000000000000000000000000000000000000000602082015250565b600061115e602683610f0c565b915061116982611102565b604082019050919050565b6000602082019050818103600083015261118d81611151565b9050919050565b7f4e487b7100000000000000000000000000000000000000000000000000000000600052601160045260246000fd5b60006111ce82610d1f565b91507fffffffffffffffffffffffffffffffffffffffffffffffffffffffffffffffff8203611200576111ff611194565b5b600182019050919050565b7f4e487b7100000000000000000000000000000000000000000000000000000000600052604160045260246000fd5b60008190508160005260206000209050919050565b60006020601f8301049050919050565b600082821b905092915050565b60006008830261129c7fffffffffffffffffffffffffffffffffffffffffffffffffffffffffffffffff8261125f565b6112a6868361125f565b95508019841693508086168417925050509392505050565b6000819050919050565b60006112e36112de6112d984610d1f565b6112be565b610d1f565b9050919050565b6000819050919050565b6112fd836112c8565b611311611309826112ea565b84845461126c565b825550505050565b600090565b611326611319565b6113318184846112f4565b505050565b5b818110156113555761134a60008261131e565b600181019050611337565b5050565b601f82111561139a5761136b8161123a565b6113748461124f565b81016020851015611383578190505b61139761138f8561124f565b830182611336565b50505b505050565b600082821c905092915050565b60006113bd6000198460080261139f565b1980831691505092915050565b60006113d683836113ac565b9150826002028217905092915050565b6113ef82610f01565b67ffffffffffffffff8111156114085761140761120b565b5b6114128254611065565b61141d828285611359565b600060209050601f831160018114611450576000841561143e578287015190505b61144885826113ca565b8655506114b0565b601f19841661145e8661123a565b60005b8281101561148657848901518255600182019150602085019450602081019050611461565b868310156114a3578489015161149f601f8916826113ac565b8355505b6001600288020188555050505b505050505050565b600081905092915050565b82818337600083830152505050565b60006114de83856114b8565b93506114eb8385846114c3565b82840190509392505050565b60006115048284866114d2565b91508190509392505050565b7f6f6e6c7920686f6c6465722063616e207265766f6b6520636f6e73656e740000600082015250565b6000611546601e83610f0c565b915061155182611510565b602082019050919050565b6000602082019050818103600083015261157581611539565b9050919050565b7f416c7265616479207265766f6b65640000000000000000000000000000000000600082015250565b60006115b2600f83610f0c565b91506115bd8261157c565b602082019050919050565b600060208201905081810360008301526115e1816115a5565b9050919050565b50565b60006115f86000836114b8565b9150611603826115e8565b600082019050919050565b6000611619826115eb565b9150819050919050565b6000815461163081611065565b61163a81866114b8565b94506001821660008114611655576001811461166a5761169d565b60ff198316865281151582028601935061169d565b6116738561123a565b60005b8381101561169557815481890152600182019150602081019050611676565b838801955050505b50505092915050565b60006116b28284611623565b915081905092915050565b7f416c726561647920736574000000000000000000000000000000000000000000600082015250565b60006116f3600b83610f0c565b91506116fe826116bd565b602082019050919050565b60006020820190508181036000830152611722816116e6565b9050919050565b600082905092915050565b61173e8383611729565b67ffffffffffffffff8111156117575761175661120b565b5b6117618254611065565b61176c828285611359565b6000601f83116001811461179b5760008415611789578287013590505b61179385826113ca565b8655506117fb565b601f1984166117a98661123a565b60005b828110156117d1578489013582556001820191506020850194506020810190506117ac565b868310156117ee57848901356117ea601f8916826113ac565b8355505b6001600288020188555050505b50505050505050565b600061180f82610f01565b61181981856114b8565b9350611829818560208601610f1d565b80840191505092915050565b60006118418284611804565b915081905092915050565b7f4e487b7100000000000000000000000000000000000000000000000000000000600052603260045260246000fdfea26469706673582212200816b5e43acd59599eee225f9f27a8aa63a996be20b31e0b558488293d5e2c6f64736f6c63430008110033",
  "linkReferences": {},
  "deployedLinkReferences": {}
}